:03000000023EA914
:0C3EA900787FE4F6D8FD758153023EF0EE
:1032AB001243DA123B871244EC12471F12474A12A1
:1032BB00488B12468D124875D29DD295E4FF000FB4
:1032CB00EFB4FFFAE4FF000FEFB4FFFAE4FF000FD7
:1032DB00EFB4FFFAE4FF000FEFB4FFFAC298C29904
:1032EB00D2AFD2ACD29C75E13F3046031242F830DC
:1032FB004A031248E430110312489F30490312006D
:10330B002E303003124089303E0312439330220596
:10331B00123FB6D21F302405123FB6D220302A07F7
:10332B00209504C22AD22D302D0312452D30500387
:10333B00123C823051062097031230D030400312DA
:10334B0047703044031241A63043369000CCE0FF67
:10335B00C39001F0E09F9001EFE094004009C2435D
:10336B00D2451246C1801A9000CFE0FFD39001F0F6
:10337B00E09F9001EFE094005007C243D242124607
:10338B00C19000CCE0FF9001EFE0FCA3E0FDC39FF8
:10339B00EC9400500E9000CFE0FFED9FEC940040BA
:1033AB0002D243303C5130261130380EC238C23C69
:1033BB00E49001F5F0124022803D30271230390F96
:1033CB00C239C23C9001F57401F0124022802830C2
:1033DB002812303A0FC23AC23C9001F57402F01237
:1033EB0040228013302910303B0DC23BC23C900170
:1033FB00F57403F012402230211E302B03201F06E0
:10340B00302C15302012C221301F05C21F1244214F
:10341B00302005C22012446530320EC24BE4FF123D
:10342B001A48E4900189F0C23230330EC24C7F0748
:10343B00121A48E4900190F0C23330350EC24D7F22
:10344B000E121A48E4900197F0C23530360EC24E78
:10345B007F15121A48E490019EF0C23675E13F02C7
:02346B0032F439
:01346D00223C
:0F461F00C1AAC12DC12F42000000004100CB00F5
:103B87007F007E8012480E9001A8EFF064AA7003B0
:103B9700023C1C7F007E8012482AE4FD7F017E8064
:103BA7001247B57D057F027E801247B5E4FD7F038E
:103BB7007E801247B5E4FD7F047E801247B5E4900E
:103BC70001A8F09001A8E0FFC394035018EF241058
:103BD700FFE43480FE7DFF1247B59001A8E004F0B2
:103BE700E004F080DEE49001A8F09001A8E0FFC3B4
:103BF70094035018EF2413FFE43480FEE4FD1247CA
:103C0700B59001A8E004F0E004F080DE7DAA7F0013
:103C17007E801247B5E49001A8F09001A8E0FFC3A9
:103C270094035022EF2401FFE43480FE12480E90E3
:103C370001A8E02402F582E43400F583EFF0900157
:103C4700A8E004F080D4E49001A8F09001A8E0FF78
:103C5700C394065022EF2410FFE43480FE12480E6E
:103C67009001A8E024CCF582E43400F583EFF090CE
:0A3C770001A8E004F080D41240EC34
:013C81002220
:1040EC007F027E8012480E8F20A2079208A20692B1
:1040FC0009A205920AA204920BA203920CA20292AC
:10410C000DA201920EA200920F8521207521FFA213
:10411C0007920FA206920DA205920BA2049209908F
:10412C000006E521F07521FFA203920FA202920D69
:0F413C00A201920BA2009209900005E521F0224A
:10482A0075E78075E5038FE4EEF5E375E64675E610
:0A483A00B900E4F5E7F5E5F5E62224
:1047B50075E78075E5028FE4EEF5E3AF058FE275E9
:0E47C500E64675E6B900E4F5E7F5E5F5E6220F
:10480E0075E78075E5018FE4EEF5E375E64675E62E
:0B481E00B900AFE2E4F5E7F5E5F5E6D0
:01482900226C
:1042A8007F007E8012482AE4FCEC2401FFE434807D
:1042B800FE74022CF582E43400F583E0FD1247B564
:1042C8000CECB403E4E4FCEC2410FFE43480FE744A
:1042D800CC2CF582E43400F583E0FD1247B50CECF4
:0F42E800B410E47DAA7F007E801247B51240EC2F
:0142F70022A4
:10485E00E4FDED25E0FEE42400FFEE3482FE124876
:06486E002A0DEDB41EEC62
:014874002221
:10468D00D2B6D2B5D2B4C234E49001DAF0A3F0C2FE
:10469D0031C2379001C9F0C230F5C8F5C975CBFFED
:1046AD0075CA0A75CDFF75CC0AD2CAD2ADC289D2F0
:0446BD00A8D28822D5
:030003000247D3DE
:1047D300C0E0C083C082D2349001DAE4F0A3F09049
:0E47E30001C9F0C2A8C289D082D083D0E032D2
:03002B00021F5A57
:101F5A00C0E0C0F0C083C082C0D075D000C004C049
:101F6A0005C006C007C2CF304B4A9001CBE004F04F
:101F7A0070069001CAE004F09001CAE0B42735A3C4
:101F8A00E0B410309001CAE4F0A3F09001D3E00469
:101F9A00F070069001D2E004F090016CE0FFC3906B
:101FAA0001D3E09F9001D2E094004008E4F0A3F04E
:101FBA00C24BD232304C4A9001CDE004F070069008
:101FCA0001CCE004F09001CCE0B42735A3E0B410D2
:101FDA00309001CCE4F0A3F09001D5E004F0700653
:101FEA009001D4E004F090016DE0FFC39001D5E0C8
:101FFA009F9001D4E094004008E4F0A3F0C24CD2D0
:10200A0033304D4A9001CFE004F070069001CEE0E3
:10201A0004F09001CEE0B42735A3E0B4103090016B
:10202A00CEE4F0A3F09001D7E004F070069001D658
:10203A00E004F090016EE0FFC39001D7E09F9001A9
:10204A00D6E094004008E4F0A3F0C24DD235304EF9
:10205A004A9001D1E004F070069001D0E004F090BB
:10206A0001D0E0B42735A3E0B410309001D0E4F0F9
:10207A00A3F09001D9E004F070069001D8E004F0D2
:10208A0090016FE0FFC39001D9E09F9001D8E094DE
:10209A00004008E4F0A3F0C24ED2369001ECE0040E
:1020AA00F09001E6E0FF9001ECE0FEB50707C29070
:1020BA009001E8EFF09001E7E0FFB50607C29190C2
:1020CA0001E9EFF09001E8E0240AFFE433FE900111
:1020DA00ECE0FD7C00B50706ECB50602D290900153
:1020EA00E9E0240AFFE433FEEDB50706ECB5060283
:1020FA00D291202506201B030221AD9001EBE004BA
:10210A00F070069001EAE004F09001EAE0640370DE
:10211A0004A3E064E860030221AD30253E9001E6A5
:10212A00E0FFD394504007C21D7450F0800EEFC3F5
:10213A0094055008D21D9001E67405F0301D0890F0
:10214A0001E6E004F080069001E6E014F09001E672
:10215A00E075F00A84E5F07002D222301B3E90014D
:10216A00E7E0FFD394504007C21E7450F0800EEF90
:10217A00C394055008D21E9001E77405F0301E087A
:10218A009001E7E004F080069001E7E014F0900186
:10219A00E7E075F00A84E5F07002D2249001EAE4DF
:1021AA00F0A3F02034030222499001DBE004F0702E
:1021BA00069001DAE004F09001DAE064017004A309
:1021CA00E064F4703720B22930B6079001C9E044C0
:1021DA0001F030B5079001C9E04402F030B407902D
:1021EA0001C9E04404F09001C9E0F4F05407F0801A
:1021FA000BC2349001DAE4F0A3F0D2379001DAE0AE
:10220A00FCA3E0FDD394F4EC9401403330B2169071
:10221A0001C9E04480F0D237C2349001DAE4F0A375
:10222A00F0D230801ABC1317BD88149001C9E0445B
:10223A0040F0D231C2349001DAE4F0A3F0D2303067
:10224A00311030B20D9001C9E04420F0D237C231CA
:10225A00D2303037279001DBE004F070069001DAC3
:10226A00E004F09001DAE0B40112A3E0B4F40DC284
:10227A00379001DAE4F0A3F0C289D2A8302E469052
:10228A000001E004F07006900000E004F090000005
:10229A00E0B42731A3E0B4102C900000E4F0A3F0DE
:1022AA009000CBE004F09000C7E0FF9000CBE0B5CF
:1022BA000713900000E4F0A3F09000CBF0D22DD2E7
:1022CA002AD22FC22E9001E1E004F070069001E0BC
:1022DA00E004F09001E0E0B44E10A3E0B4200BD289
:1022EA00509001E0E4F0A3F0D2403041259001EE95
:1022FA00E004F070069001EDE004F09001EDE0B426
:10230A000710A3E0B4D00BD2449001EDE4F0A3F09F
:10231A00C241D007D006D005D004D0D0D082D08315
:05232A00D0F0D0E0320C
:1044A9000000000000000000000000000000000003
:1044B900000000000000000000000000000000FFF4
:1044C9000000000000FF0000000000FF00000000E5
:1044D90000FF0000000000FF0000000000000000D5
:0344E900000000D0
:10408900C2309001C9E0FD540725E0FEE42400FF99
:10409900EE34829001AFF0A3EFF0ED30E711E49038
:1040A90001C9F09001AFE0FEA3E0FF12346E229047
:1040B90001C9E0FF30E615540FF09001B0E024404B
:1040C900FF9001AFE03400FE12346E22E49001C982
:1040D900F09001B0E02480FF9001AFE03400FE12BF
:0240E900346E33
:0140EB0022B2
:10452D009001AF7492F0A3E4F02409FFE43492FEFD
:10453D0012480E9000C7EFF0202F0D9001AFE0FE56
:10454D00A3E0FF12346ED22E302F139001B0E02471
:0E455D0080FF9001AFE03400FE12346EC22FDA
:01456B00222D
:1046C1009001A874A0F0A3E4F030450DC24590011B
:1046D100A8E0FEA3E0FF12346E304213C242900103
:0F46E100A9E02480FF9001A8E03400FE12346E9F
:0146F00022A7
:10402200E49001AFF0A3F09001F5E0FD25E0FEE49D
:104032002400FFEE34A89001AFF0A3EFF09001F658
:10404200E0FFA805088002C313D8FCFF30E002D2CB
:104052003FEF20E002D23DE49001F5F0303F0FC285
:104062003F9001AFE0FEA3E0FF12346ED23C303D40
:1040720015C23D9001B0E02480FF9001AFE0340012
:06408200FE12346ED23C78
:014088002215
:104421009001A874B8F0A3E4F09001E6E0FFB4F0C5
:1044310002D223EFB40102D21C302315C223900112
:10444100A9E02480FF9001A8E03400FE12346ED26E
:1044510021301C0FC21C9001A8E0FEA3E0FF123422
:034461006ED221F7
:014464002235
:104465009001A874BAF0A3E4F09001E7E0FFB4F07E
:1044750002D223EFB40102D21C302315C2239001CE
:10448500A9E02480FF9001A8E03400FE12346ED22A
:1044950021301C0FC21C9001A8E0FEA3E0FF1234DE
:0344A5006ED221B3
:0144A80022F1
:1043930078A87C017D017BFF7A4479A97E007F07A1
:1043A300121324C23E9001A87484F0E4A3F0A37412
:1043B30004F0A37470F0E4A3F09001F6E09001AD73
:1043C300F0A3F07B017A0179A87D07122EA7900153
:0643D300F6E09001F4F099
:0143D90022C1
:103FB60078A87C017D017BFF7A4479B07E007F067C
:103FC600121324302229C2229001A87483F0E4A39C
:103FD600F0A37404F0A37480F0E4A3F09001E6E08B
:103FE6009001ADF07B017A0179A87D06122EA730EB
:103FF6002429C2249001A87483F0E4A3F0A37404D6
:10400600F0A37481F0E4A3F09001E7E09001ADF035
:0B4016007B017A0179A87D06122EA71D
:01402100227C
:10456C0078AD7C017D017BFF7A4479B67E007F06B5
:10457C001213249001AD7483F0E4A3F0A37404F03F
:10458C00E4A3F0A3F07F027E8012480E9001B2EFFC
:0C459C00F07B017A0179AD7D06122EA79C
:0145A80022F0
:1045A90078AD7C017D017BFF7A4479BC7E007F0672
:1045B9001213249001AD7483F0E4A3F0A37404F002
:1045C900A37401F0E4A3F0900004E09001B2F07B41
:0A45D900017A0179AD7D06122EA7CC
:0145E30022B5
:1045E40078AD7C017D017BFF7A4479C27E007F0631
:1045F4001213249001AD7493F0E4A3F0A37404F0B7
:10460400A37401F0E4A3F09001F2E09001B2F07B16
:0A461400017A0179AD7D06122EA790
:01461E002279
:1043480078AD7C017D017BFF7A4479C87E007F06C9
:104358001213249001ADE054BFF054F3F0E4A3F03D
:10436800A37404F0A37460F0E4A3F09001EFE0FEFE
:10437800A3E0FF7C007D0A1213C49001B2EFF07B2A
:0A438800017A0179AD7D06122EA71F
:014392002208
:103D500078AD7C017D017BFF7A4479CE7E007F06C1
:103D60001213249001ADE0548FF054F3F0E4A3F06B
:103D7000A37404F0A37460F0A37401F09001DCE07C
:103D8000FCA3E0FDA3E0FEA3E0FF9001B312143D0D
:103D9000E4FFFEFDFC9001B3E0F8A3E0F9A3E0FA34
:103DA000A3E0FB12110B50399001B3E0FCA3E0FD3E
:103DB000A3E0FEA3E0FF1211849001B312143D9022
:103DC00001B3E0FCA3E0FDA3E0FEA3E0FF1211D3EA
:103DD0009001B2EFF09001B0E044809001B2F08029
:103DE000169001B3E0FCA3E0FDA3E0FEA3E0FF1208
:103DF00011D39001B2EFF07B017A0179AD7D06120B
:023E00002EA7EB
:013E0200229D
:103F350078AD7C017D017BFF7A4479D47E007F06D4
:103F45001213249001ADE0548FF054F3F0E4A3F084
:103F5500A37404F0A37460F0A37402F09001E2E08E
:103F6500FCA3E0FDA3E0FEA3E0FF9001B312143D26
:103F7500E4FFFEFDFC9001B3E0F8A3E0F9A3E0FA4D
:103F8500A3E0FB12110B5007E49001B2F0801690EC
:103F950001B3E0FCA3E0FDA3E0FEA3E0FF1211D313
:103FA5009001B2EFF07B017A0179AD7D06122EA763
:013FB50022E9
:0837C3009001AFEEF0A3EFF05E
:1037CB0078B37C017D017BFF7A4479DA7E007F0C34
:1037DB001213249001B3E0548FF0E4A3F0A374040C
:1037EB00F09001A6E0FF60069001B6F080329001E8
:1037FB0060E0FF60069001B6F08025900170E0FF5D
:10380B0060069001B6F08018900188E0FF6006908A
:10381B0001B6F0800B9001A5E0FF60049001B6F0BB
:10382B009001B0E02401FF9001AFE03400FE12489C
:10383B000EEFF470030238C19001B0E02401FF9049
:10384B0001AFE03400FE12480EEF540F2403900139
:10385B00B2F0240244F0FFA3E05FF090017DE09012
:10386B0001B7F0E49001B1F09001B2E0FF9001B12B
:10387B00E0FEC39F50309001B0E02401FD9001AFFA
:10388B00E03400FCEE7E002DFFEE3CFE12480E9065
:10389B0001B1E024B8F582E43401F583EFF0900137
:1038AB00B1E004F080C27B017A0179B39001B2E000
:1038BB002405FD122EA79001B0E02411FF9001AF5B
:1038CB00E03400FE12480EEFF470030239599001F8
:1038DB00B0E02411FF9001AFE03400FE12480EEF70
:1038EB00540F24039001B2F0240244F0FFA3E05FD5
:1038FB00F090017DE044029001B7F0E49001B1F04B
:10390B009001B2E0FF9001B1E0FEC39F50309001F7
:10391B00B0E02411FD9001AFE03400FCEE7E002DF1
:10392B00FFEE3CFE12480E9001B1E024B8F582E4A4
:10393B003401F583EFF09001B1E004F080C27B011C
:0E394B007A0179B39001B2E02405FD122EA797
:01395900224B
:1046560078AD7C017D017BFF7A4479E67E007F069A
:104666001213249001AD7483F0E4A3F0A37404F054
:10467600A374F0F0E4A3F0A374BBF07B017A017994
:06468600AD7D06122EA717
:01468C00220B
:08346E009001B1EEF0A3EFF0B4
:103476002401FFE43EFE12480EEFF46056E490018C
:10348600B4F09001B4E0FFC3940850309001B2E06C
:103496002401FD9001B1E03400FC7E00ED2FFFEE2B
:1034A6003CFE12480E9001B4E024B5F582E43401E6
:1034B600F583EFF09001B4E004F080C69001B5E02A
:1034C600540F2403FF9001B3F0FD7B017A0179B517
:1034D600122EA79001B2E02411FF9001B1E0340052
:1034E600FE12480EEFF46056E49001B4F09001B479
:1034F600E0FFC3940850309001B2E02411FD900122
:10350600B1E03400FC7E00ED2FFFEE3CFE12480ECB
:103516009001B4E024B5F582E43401F583EFF09030
:1035260001B4E004F080C69001B5E0540F2403FF17
:103536009001B3F0FD7B017A0179B5122EA79001B7
:10354600B2E02421FF9001B1E03400FE12480EEFF4
:10355600F46056E49001B4F09001B4E0FFC394081F
:1035660050309001B2E02421FD9001B1E03400FC1E
:103576007E00ED2FFFEE3CFE12480E9001B4E024D3
:10358600B5F582E43401F583EFF09001B4E004F080
:1035960080C69001B5E0540F2403FF9001B3F0FDFF
:1035A6007B017A0179B5122EA79001B2E02431FF92
:1035B6009001B1E03400FE12480EEFF46056E4903C
:1035C60001B4F09001B4E0FFC3940850309001B20A
:1035D600E02431FD9001B1E03400FC7E00ED2FFFC8
:1035E600EE3CFE12480E9001B4E024B5F582E434B8
:1035F60001F583EFF09001B4E004F080C69001B5C8
:10360600E0540F2403FF9001B3F0FD7B017A0179AA
:04361600B5122EA714
:01361A00228D
:103A8700005EBCE2613FDD83C29C7E20A3FD1F4137
:103A97009DC3217FFCA2401E5F01E3BD3E6082DC27
:103AA700237D9FC1421CFEA0E1BF5D0380DE3C6217
:103AB700BEE0025CDF81633D7C22C09E1D43A1FF07
:103AC7004618FAA427799BC584DA3866E5BB5907F7
:103AD700DB856739BAE406581947A5FB7826C49AE7
:103AE700653BD987045AB8E6A7F91B45C6987A24D7
:103AF700F8A6441A99C7257B3A6486D85B05E7B9C7
:103B07008CD2306EEDB3510F4E10F2AC2F7193CDB6
:103B1700114FADF3702ECC92D38D6F31B2EC0E50A6
:103B2700AFF1134DCE90722C6D33D18F0C52B0EE96
:103B3700326C8ED0530DEFB1F0AE4C1291CF2D7386
:103B4700CA947628ABF517490856B4EA6937D58B76
:103B57005709EBB536688AD495CB2977F4AA481666
:103B6700E9B7550B88D6346A2B7597C94A14F6A856
:103B7700742AC896154BA9F7B6E80A54D7896B3546
:08462E004101F3004101F2001B
:1043DA00C292E4F52FF52DC210F531C211F52EF572
:1043EA002CC216C215F52BC214F535C212F532C20B
:1043FA0018F534C217F530C219D294758922758D11
:10440A00F8758BF8D28E758C80758A80D2A9D28C79
:07441A007598E075B812224D
:10489F0020100FC211E4F531F52FC216F52EF52DAC
:0348AF00D21522FD
:03000B0002395A5D
:10395A00C0E0C083C082C0D075D000C0003014154A
:10396A000535E53520E002B293E535B41407D29364
:10397A00753500C2143012760532E53224F7601F1D
:10398A0024FC602E24FC603D240C7062A2949201F7
:10399A0030925BA29430B101B35053C292804FA2CD
:1039AA00949203309248A29430B101B35040C2922B
:1039BA00803CA2949205309235A29430B101B35062
:1039CA002DC2928029A294920730920AA29430B111
:1039DA0001B35002C292C2127532007436252FF812
:1039EA00A620052FE52D6520903A8793F52D3015F1
:1039FA0047309404052B8003752B00E52BD39440A4
:103A0A004036C293D29BD292C29C900005E0F599AF
:103A1A0030B106A294929280F7758A80D214D2129B
:103A2A00D2167520FFC215752B00900005E0652E91
:103A3A00903A8793F52E05313018160534E534B4DB
:103A4A00200FC218753400C210D29D752F00752D33
:103A5A000030171E0530E530B42817C2177530003C
:103A6A00D211052CE52CB40307C211D246752C00DD
:0D3A7A00D29DD000D0D0D082D083D0E032D9
:03002300022A1698
:102A1600C0E0C0F0C083C082C0D075D000C000C086
:102A260001C002C003C004C005C006C00720980349
:102A3600022B9BC298859921C21875340030170362
:102A4600022B8CD210E52FC3940250187436252F12
:102A5600F8A621052FE52D6521903A8793F52DD20D
:102A660018022C60E52F64027035E52154C064809D
:102A760060227436252FF8A6217436252FF8E690A5
:102A860001F1F0052FE52D6521903A8793F52DD2BA
:102A960018022C60752F00752D00C210022C60E5FF
:102AA6002FC394045011052FE52D6521903A879385
:102AB600F52DD218022C60E52F640470799001F18F
:102AC600E0FF30E439E52114FE900004E0FDA8069D
:102AD600088002C313D8FC30E019C29D9001F3E5CB
:102AE60021F0052FD213652D903A8793F52DD21834
:102AF600022C60752F00752D00C210022C60EF307D
:102B0600E403022C607F027E8012480EEF6521608E
:102B160005E521B40315C29D052FD21AE52D6521C1
:102B2600903A8793F52DD218022C60752F00752DDB
:102B360000C210022C60E538540F2405FFE52FC3B0
:102B46009F50187434252FF8A621052FE52D6521F1
:102B5600903A8793F52DD218022C60E521B52D19F0
:102B6600D292C29BC29C7599AAD2197B007A00792F
:102B760036E52F24FEFD122C7B752D00C210D29D4A
:102B8600752F00022C60C217753000D246752C00D6
:102B9600D29D022C6030190BC299C292C219D29CE6
:102BA600022C60209221D29CD210C299D211052CFF
:102BB600D218752E00E52C640A6003022C60C2113F
:102BC600D246F52C022C6030162EC299C293D29BA7
:102BD600900006E0F59930B106A294929280F775BE
:102BE6008A80D214D212C2160531900006E0652EF4
:102BF600903A8793F52E8062C299752F00752D0045
:102C06000531E531D394054004C29B8002D29BE591
:102C1600332403FFE433FEAD317C00C3ED9FEE6445
:102C260080F8748098501274422531F8E6F599655B
:102C36002E903A8793F52E8021EDB50709ECB5065F
:102C460005852E998014D29CC292E54554C06480B5
:102C56006006C29DD2178002D246D007D006D005A4
:102C6600D004D003D002D001D000D0D0D082D083FF
:052C7600D0F0D0E032B7
:104636005C0189000000000000000000000000008E
:0F46460000000000000000000000000000000065
:10002E00C249C24A7B017A01797312232F9001AC27
:10003E00EFF0201A03020C2EC21A900175E054C084
:10004E0060030203B8A3E054C060030202D7A3E02A
:10005E00540F60030201EF7F017EA812480EEFF4E9
:10006E006002D2267F017EAA12480EEFF46002D201
:10007E00277F017EAC12480EEFF46002D2287F017A
:10008E007EAE12480EEFF46002D229900178E0FDA8
:10009E005403146010146016240270199001F6E0D7
:1000AE0054FEF080109001F6E04401F080079001BC
:1000BE00F6E06401F0ED540C24FC601124FC601693
:1000CE00240870199001F6E054FDF080109001F6AE
:1000DE00E04402F080079001F6E06402F0900178AF
:1000EE00E0543024F0601124F06016242070199032
:1000FE0001F6E054FBF080109001F6E04404F0802D
:10010E00079001F6E06404F0900178E054C024C03A
:10011E00601124C06016248070199001F6E054F727
:10012E00F080109001F6E04408F080079001F6E0B0
:10013E006408F0900179E0FD540314601014601609
:10014E00240270199001F6E054EFF080109001F641
:10015E00E04410F080079001F6E06410F0ED540CCE
:10016E0024FC601124FC6016240870199001F6E03E
:10017E0054DFF080109001F6E04420F080079001EB
:10018E00F6E06420F0900179E0543024F060112400
:10019E00F06016242070199001F6E054BFF0801024
:1001AE009001F6E04440F080079001F6E06440F0E4
:1001BE00900179E054C024C0601124C060162480E0
:1001CE0070199001F6E0547FF080109001F6E04433
:1001DE0080F080079001F6E06480F0124257020E24
:1001EE006A900177E0540F6401706D7F017EB81242
:1001FE00480EEFF46002D22B900177E0547024F099
:10020E00602024F0603324E0603624F06037245000
:10021E006003020E6A900178E09001E6F0D22202AD
:10022E000E6A9001E6E0B4F0057401F080069001CC
:10023E00E674F0F0D222020E6AD225D222020E6AA3
:10024E00D225020E6AC225E49001EAF0A3F0B21D97
:10025E00D222020E6A020E6A900177E0540F6402F7
:10026E006003020E6A7F017EBA12480EEFF460023E
:10027E00D22C900177E0547024F0601C24F0602F93
:10028E0024D0603224506003020E6A900178E09010
:10029E0001E7F0D224020E6A9001E7E0B4F0057493
:1002AE0001F080069001E774F0F0D224020E6AD2BB
:1002BE001BD224020E6AC21BE49001EAF0A3F0B234
:1002CE001ED224020E6A020E6A900176E0FF20E72B
:1002DE0003020E6A20E603020385B2A2E49001A88F
:1002EE00F09001A8E0FF2473F582E43401F583E079
:1002FE00FE74612FF582E43401F583EEF09001A8CF
:10030E00E004F0E0B40ADA123E039001A7EFF02405
:10031E00FE602214603414604624036003020E6AE9
:10032E0090018FE0FF54C07007EF540F90016CF0F6
:10033E00D24B020E6A900196E0FF54C07007EF5444
:10034E000F90016DF0D24C020E6A90019DE0FF54A9
:10035E00C07007EF540F90016EF0D24D020E6A90EE
:10036E0001A3E0FF54C07007EF540F90016FF0D25D
:10037E004E020E6A020E6AB2A3E49001A8F090013A
:10038E00A8E0FF2473F582E43401F583E0FE747E69
:10039E002FF582E43401F583EEF09001A8E004F02D
:1003AE00E0B40ADA12361B020E6A900175E054C0F0
:1003BE0064406003020800A3E0FF54F0704BEF545A
:1003CE000F146039047042900177E054F024F0600D
:1003DE001224F060182420701C900178E090000226
:1003EE00F08012900178E0900003F0800890017880
:1003FE00E0900004F01242A8124656800C9001774D
:10040E00E0700312485E124656900176E0FF54F0FB
:10041E0064307075EF540F14602914604824027014
:10042E0062900177E024A0600E241070569001783F
:10043E00E09000CCF0804C900178E09000CDF08000
:10044E00428040900177E024A0600E24107034901A
:10045E000178E09000CEF0802A900178E09000CFF5
:10046E00F08020801E900177E024A0600E24107092
:10047E0012900178E09000D0F08008900178E09022
:10048E0000D1F01242A8124656900176E0FF54F0C9
:10049E0064106003020588EF540F9001A9F0E490F8
:1004AE0001A8F09001A8E0FDC394BF502FA3E02552
:1004BE00E0FEE42400FFEE3482FE7C00EF2DFFEC24
:1004CE003EFE12480E9001A8E02407F582E43400A7
:1004DE00F583EFF09001A8E004F080C79001A9E049
:1004EE00B4080050459004FAF82828730205120249
:1004FE00051702051C02052102052602052B020521
:10050E00300205351214A080211214A0801C121482
:10051E00A080171214A080121214A0800D1214A025
:10052E0080081214A080031214A09001A9E025E007
:10053E00FEE42400FFEE3482FE12482AE49001A865
:10054E00F09001A9E025E0FEE42400FFEE3482FEE7
:10055E009001A8E0FD7A002FFFEA3EFE74072DF50C
:10056E0082E43400F583E0FD1247B59001A8E00463
:10057E00F0E0C394BF40CA124656900176E054F0A4
:10058E00642070709001A8F09001A8E0FFC394BFA2
:10059E005021E42FFFE43492FE12480E9001A8E0A1
:1005AE002407F582E43400F583EFF09001A8E0040F
:1005BE00F080D5900176E0540F70031214A07F00E6
:1005CE007E9212482AE49001A8F09001A8E0FD2442
:1005DE0000FFE43492FE74072DF582E43400F583B7
:1005EE00E0FD1247B59001A8E004F0E0C394BF40CF
:1005FE00D9124656900176E054F064307070900136
:10060E00A8F09001A8E0FFC394BF5021E42FFFE4AF
:10061E0034A2FE12480E9001A8E02407F582E434BD
:10062E0000F583EFF09001A8E004F080D5900176FC
:10063E00E0540F70031214A07F007EA212482AE429
:10064E009001A8F09001A8E0FD2400FFE434A2FE82
:10065E0074072DF582E43400F583E0FD1247B59062
:10066E0001A8E004F0E0C394BF40D91246569001B1
:10067E0076E0FF54F064406003020746EF540F909B
:10068E0001AAF0E49001A8F09001A8E0FDC394BF88
:10069E0050319001AAE025E0FEE42400FFEE34A8DC
:1006AE00FE7C00EF2DFFEC3EFE12480E9001A8E0FE
:1006BE002407F582E43400F583EFF09001A8E004FE
:1006CE00F080C5900176E0540F14600F1460111481
:1006DE006013240370121214A0800D1214A080084F
:1006EE001214A080031214A09001AAE025E0FEE4EB
:1006FE002400FFEE34A8FE12482AE49001A8F090E0
:10070E0001AAE025E0FEE42400FFEE34A8FE9001ED
:10071E00A8E0FD7A002FFFEA3EFE74072DF582E475
:10072E003400F583E0FD1247B59001A8E004F0E037
:10073E00C394BF40CA124656900176E0FF54F0644F
:10074E00506003020E6AEF540F9001ABF0E490017B
:10075E00A8F09001A8E0FDC394BF50319001ABE02A
:10076E0025E0FEE42400FFEE34B8FE7C00EF2DFF02
:10077E00EC3EFE12480E9001A8E02407F582E43408
:10078E0000F583EFF09001A8E004F080C59001AB76
:10079E00E01460080470081214A080031214A090D4
:1007AE0001ABE025E0FEE42400FFEE34B8FE124873
:1007BE002AE49001A8F09001ABE025E0FEE42400CD
:1007CE00FFEE34B8FE9001A8E0FD7A002FFFEA3E5E
:1007DE00FE74072DF582E43400F583E0FD1247B573
:1007EE009001A8E004F0E0C394BF40CA124656023E
:1007FE000E6A900175E054C0FF64807003020E6AA9
:10080E00EF64C06003020E6A900176E0FF54F012AE
:10081E00147A083F00085A10092A2009C9300A35EF
:10082E00400B37500BF7600C1F700C248000000E2D
:10083E006AEF540F14600C046003020E6A12456CCA
:10084E00020E6A1245A9020E6A020E6A900176E045
:10085E00FF540FFE9001A9F0FD9001A6EFF0E49079
:10086E000160F0900170F0900188F09001A5F0ED1C
:10087E0025E0FEE42400FFEE3482900171F0A3EF38
:10088E00F0EDB408004003020E6A90089FF8282885
:10089E00730208B70208C50208D30208E10208EF86
:1008AE000208FD02090B020919900171E0FEA3E096
:1008BE00FF12414B020E6A900171E0FEA3E0FF129F
:1008CE00414B020E6A900171E0FEA3E0FF12414B14
:1008DE00020E6A900171E0FEA3E0FF12414B020E80
:1008EE006A900171E0FEA3E0FF12414B020E6A9086
:1008FE000171E0FEA3E0FF12414B020E6A900171FE
:10090E00E0FEA3E0FF12414B020E6A900171E0FE81
:10091E00A3E0FF12414B020E6A020E6A900176E0CE
:10092E00FF540FFD900160EFF0E49001A6F09001EE
:10093E0070F0900188F09001A5F0ED25E0FEE42422
:10094E0000FFEE3492900171F0A3EFF0AF05EF14BB
:10095E006036046003020E6A900177E054F024F0D2
:10096E00601524106003020E6A900171E0FEA3E090
:10097E00FF12414B020E6A900171E0FEA3E0FF12DE
:10098E00414B020E6A020E6A900177E054F024F099
:10099E00601524106003020E6A900171E0FEA3E060
:1009AE00FF12414B020E6A900171E0FEA3E0FF12AE
:1009BE00414B020E6A020E6A020E6A900176E0FF49
:1009CE00540FFD900170EFF0E49001A6F0900160DD
:1009DE00F0900188F09001A5F0ED25E0FEE42400F2
:1009EE00FFEE34A2900171F0A3EFF0AF05EF6003BC
:1009FE00020E6A900177E024F06015241060030265
:100A0E000E6A900171E0FEA3E0FF12414B020E6AE6
:100A1E00900171E0FEA3E0FF12414B020E6A020E3E
:100A2E006A020E6A020E6A900176E0FF540FFE9083
:100A3E0001AAF0FD900188EFF0E49001A6F090017C
:100A4E0060F0900170F09001A5F0ED25E0FEE42439
:100A5E0000FFEE34A8900171F0A3EFF0ED14603CAE
:100A6E00146067147003020B0624036003020E6AFF
:100A7E00900177E0146014046003020E6A90017115
:100A8E00E0FEA3E0FF12414B020E6A900171E0FE00
:100A9E00A3E0FF12414B020E6A020E6A900177E04C
:100AAE0024F0601524106003020E6A900171E0FEBE
:100ABE00A3E0FF12414B020E6A900171E0FEA3E02B
:100ACE00FF12414B020E6A020E6A900177E024F08B
:100ADE00601524106003020E6A900171E0FEA3E01F
:100AEE00FF12414B020E6A900171E0FEA3E0FF126D
:100AFE00414B020E6A020E6A900177E024F06015F7
:100B0E0024106003020E6A900171E0FEA3E0FF1252
:100B1E00414B020E6A900171E0FEA3E0FF12414BC1
:100B2E00020E6A020E6A020E6A900176E0FF540F00
:100B3E00FE9001ABF0FD9001A5EFF0E4A3F0900163
:100B4E0060F0900170F0900188F0ED25E0FEE42455
:100B5E0000FFEE34B8900171F0A3EFF0ED14604693
:100B6E00046003020E6A900177E024F0601924F00D
:100B7E00602324206003020E6A900171E0FEA3E060
:100B8E00FF12414B020E6A900171E0FEA3E0FF12CC
:100B9E00414B020E6A900171E0FEA3E0FF12414B41
:100BAE00020E6A020E6A900177E024F0601924F0BA
:100BBE00602324206003020E6A900171E0FEA3E020
:100BCE00FF12414B020E6A900171E0FEA3E0FF128C
:100BDE00414B020E6A900171E0FEA3E0FF12414B01
:100BEE00020E6A020E6A020E6A900176E0540F142B
:100BFE00601014601324026003020E6A124348024E
:100C0E000E6A123D50020E6A123F35020E6A020E35
:100C1E006AD23E020E6AD222D224020E6A020E6AF4
:100C2E00201303020E6AC213900175E054C0FFBF79
:100C3E00C015A3E07011900177E0700B900004E0F6
:100C4E009001F2F01245E4900175E054C060030289
:100C5E000E6A900177E0540F6003020DBFA3E0FD12
:100C6E005403146010146016240270199001F6E0FB
:100C7E0054FEF080109001F6E04401F080079001E0
:100C8E00F6E06401F0ED540C24FC601124FC6016B7
:100C9E00240870199001F6E054FDF080109001F6D2
:100CAE00E04402F080079001F6E06402F0900178D3
:100CBE00E0543024F0601124F06016242070199056
:100CCE0001F6E054FBF080109001F6E04404F08051
:100CDE00079001F6E06404F0900178E054C024C05F
:100CEE00601124C06016248070199001F6E054F74C
:100CFE00F080109001F6E04408F080079001F6E0D5
:100D0E006408F0900179E0FD54031460101460162D
:100D1E00240270199001F6E054EFF080109001F665
:100D2E00E04410F080079001F6E06410F0ED540CF2
:100D3E0024FC601124FC6016240870199001F6E062
:100D4E0054DFF080109001F6E04420F0800790010F
:100D5E00F6E06420F0900179E0543024F060112424
:100D6E00F06016242070199001F6E054BFF0801048
:100D7E009001F6E04440F080079001F6E06440F008
:100D8E00900179E054C024C0601124C06016248004
:100D9E0070199001F6E0547FF080109001F6E04457
:100DAE0080F080079001F6E06480F0124257020E48
:100DBE006A900177E0FF540FFE6401704FEF54709C
:100DCE0024F0601B24F0602D24D0602F245060038B
:100DDE00020E6A900178E09001E6F0D222807D90BA
:100DEE0001E6E0B4F0057401F080069001E674F0BF
:100DFE00F0D2228067D225D2228061C225E49001F2
:100E0E00EAF0A3F0B21DD22280528050EE6402703E
:100E1E004B900178E0547024F0601824F0602A247E
:100E2E00D0602C24507035900177E09001E7F0D21D
:100E3E002480299001E7E0B4F0057401F08006905B
:100E4E0001E774F0F0D2248013D21BD224800DC29D
:0E0E5E001BE49001EAF0A3F0B21ED224D24AA7
:010E6C002263
:1014A000900177E0FF54F024F0700302162924F035
:1014B000700302178B24F070030218ED24F0700300
:1014C000021A1B24406003021A47EF5407B40800B5
:1014D0004003021A479014DCF82828730214F4021F
:1014E000153802154102158502158E0215D2021516
:1014F000DB02161FE49001ADF0900178E0540F2458
:1015000003FFE433FE9001ADE0C39FEE6480F87406
:1015100080984003021A47E0FF2478F582E4340102
:10152000F583E0FE74082FF582E43400F583EEF0D5
:101530009001ADE004F080C1900178E0900010F0DF
:1015400022E49001ADF0900178E0540F2403FFE411
:1015500033FE9001ADE0C39FEE6480F87480984044
:1015600003021A47E0FF2478F582E43401F583E0B2
:10157000FE74182FF582E43400F583EEF09001AD8F
:10158000E004F080C1900178E0900020F022E49027
:1015900001ADF0900178E0540F2403FFE433FE9096
:1015A00001ADE0C39FEE6480F87480984003021A96
:1015B00047E0FF2478F582E43401F583E0FE7428E7
:1015C0002FF582E43400F583EEF09001ADE004F0F5
:1015D00080C1900178E0900030F022E49001ADF0FD
:1015E000900178E0540F2403FFE433FE9001ADE056
:1015F000C39FEE6480F87480984003021A47E0FFAE
:101600002478F582E43401F583E0FE74382FF58206
:10161000E43400F583EEF09001ADE004F080C19079
:101620000178E0900040F02222900177E05407B466
:1016300008004003021A4790163EF8282873021645
:101640005602169A0216A30216E70216F002173483
:1016500002173D021781E49001ADF0900178E0544B
:101660000F2403FFE433FE9001ADE0C39FEE6480DE
:10167000F87480984003021A47E0FF2478F582E46A
:101680003401F583E0FE74482FF582E43400F583DD
:10169000EEF09001ADE004F080C1900178E09000A0
:1016A00050F022E49001ADF0900178E0540F240353
:1016B000FFE433FE9001ADE0C39FEE6480F87480D8
:1016C000984003021A47E0FF2478F582E43401F5DC
:1016D00083E0FE74582FF582E43400F583EEF09039
:1016E00001ADE004F080C1900178E0900060F0224C
:1016F000E49001ADF0900178E0540F2403FFE4334F
:10170000FE9001ADE0C39FEE6480F87480984003C2
:10171000021A47E0FF2478F582E43401F583E0FE05
:1017200074682FF582E43400F583EEF09001ADE0AB
:1017300004F080C1900178E0900070F022E4900104
:10174000ADF0900178E0540F2403FFE433FE9001E4
:10175000ADE0C39FEE6480F87480984003021A479E
:10176000E0FF2478F582E43401F583E0FE74782FFD
:10177000F582E43400F583EEF09001ADE004F080F2
:10178000C1900178E0900080F02222900177E0542F
:1017900007B408004003021A479017A0F8282873DE
:1017A0000217B80217FC0218050218490218520263
:1017B000189602189F0218E3E49001ADF0900178AA
:1017C000E0540F2403FFE433FE9001ADE0C39FEE2D
:1017D0006480F87480984003021A47E0FF2478F58B
:1017E00082E43401F583E0FE74882FF582E434004E
:1017F000F583EEF09001ADE004F080C1900178E057
:10180000900090F022E49001ADF0900178E0540F48
:101810002403FFE433FE9001ADE0C39FEE6480F843
:101820007480984003021A47E0FF2478F582E4347C
:1018300001F583E0FE74982FF582E43400F583EE21
:10184000F09001ADE004F080C1900178E09000A03C
:10185000F022E49001ADF0900178E0540F2403FFF2
:10186000E433FE9001ADE0C39FEE6480F87480988D
:101870004003021A47E0FF2478F582E43401F5833F
:10188000E0FE74A82FF582E43400F583EEF09001B9
:10189000ADE004F080C1900178E09000B0F022E467
:1018A0009001ADF0900178E0540F2403FFE433FE83
:1018B0009001ADE0C39FEE6480F87480984003020D
:1018C0001A47E0FF2478F582E43401F583E0FE74E2
:1018D000B82FF582E43400F583EEF09001ADE0041A
:1018E000F080C1900178E09000C0F0222290017752
:1018F000E054071460571470030219911470030226
:1019000019D524036003021A47E49001AEF0E49075
:1019100001ADF09001ADE0FFC394105025A3E07538
:10192000F040A42FF582E435F0F583E5822407F535
:1019300082E5833400F58374FFF09001ADE004F09C
:1019400080D19001AEE004F0E0B403C222E4900143
:10195000AEF0E49001ADF09001ADE0FFC394105003
:1019600025A3E075F040A42FF582E435F0F583E57A
:10197000822417F582E5833400F58374FFF090012B
:10198000ADE004F080D19001AEE004F0E0B403C219
:1019900022E49001AEF0E49001ADF09001ADE0FFE3
:1019A000C394105025A3E075F040A42FF582E435D0
:1019B000F0F583E5822427F582E5833400F583740E
:1019C000FFF09001ADE004F080D19001AEE004F0B2
:1019D000E0B403C222E49001AEF0E49001ADF090D7
:1019E00001ADE0FFC394105025A3E075F040A42F93
:1019F000F582E435F0F583E5822437F582E583341A
:101A000000F58374FFF09001ADE004F080D1900107
:101A1000AEE004F0E0B403C2222222900177E05449
:101A20000F7024E49001ADF09001ADE0FFC394C0CD
:101A3000501574072FF582E43400F58374FFF0909D
:071A400001ADE004F080E1BC
:011A4700227C
:10414B009001ADEEF0A3EFF0900177E054F024F086
:10415B00601924F0602D24207040E490017DF090D4
:10416B0001ADE0FEA3E0FF1237C32290017D741076
:10417B00F09001AEE02440FF9001ADE03400FE1260
:10418B0037C32290017D7420F09001AEE02480FFB4
:0B419B009001ADE03400FE1237C3229B
:101A4800E4FEEF2E2489F582E43401F583E0FD7489
:101A5800A82EF582E43401F583EDF00EEEB407E22A
:101A68009001ACE054C024807003021B0924C070AC
:101A780003021B8F24806003021C0F9001ADE0302D
:101A8800E0099001C97480F01240899001ADE030FE
:101A9800E1099001C97481F01240899001ADE030EC
:101AA800E2099001C97482F01240899001ADE030DA
:101AB800E3099001C97483F01240899001ADE030C8
:101AC800E4099001C97484F01240899001ADE030B6
:101AD800E5099001C97485F01240899001ADE030A4
:101AE800E6099001C97486F01240899001ADE020A2
:101AF800E703021C0F9001C97487F0124089021C89
:101B08000F9001ADE030E0099001C97440F0124037
:101B1800899001ADE030E1099001C97441F01240AB
:101B280089900166E030E2099001C97442F01240E0
:101B3800899001ADE030E3099001C97443F0124087
:101B4800899001ADE030E4099001C97444F0124075
:101B5800899001ADE030E5099001C97445F0124063
:101B6800899001ADE030E6099001C97446F0124051
:101B7800899001ADE020E703021C0F9001C974476A
:101B8800F0124089021C0F9001ADE030E00990018D
:101B9800C97420F01240899001ADE030E10990014C
:101BA800C97421F01240899001ADE030E20990013A
:101BB800C97422F01240899001ADE030E309900128
:101BC800C97423F01240899001ADE030E409900116
:101BD800C97424F01240899001ADE030E509900104
:101BE800C97425F01240899001ADE030E6099001F2
:101BF800C97426F01240899001ADE030E7099001E0
:101C0800C97427F01240899001ACE0543024E07088
:101C180003021CB024F07003021D36242060030266
:101C28001DB69001ADE030E0099001C97480F01252
:101C3800452D9001ADE030E1099001C97481F012A1
:101C4800452D9001ADE030E2099001C97482F0128F
:101C5800452D9001ADE030E3099001C97483F0127D
:101C6800452D9001ADE030E4099001C97484F0126B
:101C7800452D9001ADE030E5099001C97485F01259
:101C8800452D9001ADE030E6099001C97486F01247
:101C9800452D9001ADE020E703021DB69001C974FF
:101CA80087F012452D021DB69001ADE030E0099095
:101CB80001C97440F012452D9001ADE030E1099062
:101CC80001C97441F012452D9001ADE030E2099050
:101CD80001C97442F012452D9001ADE030E309903E
:101CE80001C97443F012452D9001ADE030E409902C
:101CF80001C97444F012452D9001ADE030E509901A
:101D080001C97445F012452D9001ADE030E6099007
:101D180001C97446F012452D9001ADE020E7030299
:101D28001DB69001C97447F012452D021DB69001E9
:101D3800ADE030E0099001C97420F012452D900102
:101D4800ADE030E1099001C97421F012452D9001F0
:101D5800ADE030E2099001C97422F012452D9001DE
:101D6800ADE030E3099001C97423F012452D9001CC
:101D7800ADE030E4099001C97424F012452D9001BA
:101D8800ADE030E5099001C97425F012452D9001A8
:101D9800ADE030E6099001C97426F012452D900196
:101DA800ADE030E7099001C97427F012452D900184
:101DB800ACE0540C24F87003021E5524FC70030296
:101DC8001ED924086003021F599001ADE030E009D4
:101DD8009001C97480F01240229001ADE030E10911
:101DE8009001C97481F01240229001ADE030E209FF
:101DF8009001C97482F01240229001ADE030E309ED
:101E08009001C97483F01240229001ADE030E409DA
:101E18009001C97484F01240229001ADE030E509C8
:101E28009001C97485F01240229001ADE030E609B6
:101E38009001C97486F01240229001ADE020E703BA
:101E4800021F599001C97487F0124022229001ADF7
:101E5800E030E0099001C97440F01240229001ADD1
:101E6800E030E1099001C97441F01240229001ADBF
:101E7800E030E2099001C97442F01240229001ADAD
:101E8800E030E3099001C97443F01240229001AD9B
:101E9800E030E4099001C97444F01240229001AD89
:101EA800E030E5099001C97445F01240229001AD77
:101EB800E030E6099001C97446F01240229001AD65
:101EC800E020E703021F599001C97447F01240222D
:101ED800229001ADE030E0099001C97420F0124071
:101EE800229001ADE030E1099001C97421F012405F
:101EF800229001ADE030E2099001C97422F012404D
:101F0800229001ADE030E3099001C97423F012403A
:101F1800229001ADE030E4099001C97424F0124028
:101F2800229001ADE030E5099001C97425F0124016
:101F3800229001ADE030E6099001C97426F0124004
:101F4800229001ADE030E7099001C97427F01240F2
:011F58002266
:011F59002265
:10361B00900182E054C024C060030236A89001835D
:10362B00E030E0099001C97480F012408990018369
:10363B00E030E1099001C97481F012408990018357
:10364B00E030E2099001C97482F012408990018345
:10365B00E030E3099001C97483F012408990018333
:10366B00E030E4099001C97484F012408990018321
:10367B00E030E5099001C97485F01240899001830F
:10368B00E030E6099001C97486F0124089900183FD
:10369B00E030E7099001C97487F0124089900182EC
:1036AB00E0543024F06003023735900183E030E0C2
:1036BB00099001C97480F012452D900183E030E12F
:1036CB00099001C97481F012452D900183E030E21D
:1036DB00099001C97482F012452D900183E030E30B
:1036EB00099001C97483F012452D900183E030E4F9
:1036FB00099001C97484F012452D900183E030E5E7
:10370B00099001C97485F012452D900183E030E6D4
:10371B00099001C97486F012452D900183E030E7C2
:10372B00099001C97487F012452D900182E0540C69
:10373B0024FC60030237C2900183E030E009900162
:10374B00C97480F0124022900183E030E1099001AE
:10375B00C97481F0124022900183E030E20990019C
:10376B00C97482F0124022900183E030E30990018A
:10377B00C97483F0124022900183E030E409900178
:10378B00C97484F0124022900183E030E509900166
:10379B00C97485F0124022900183E030E609900154
:1037AB00C97486F0124022900183E030E709900142
:0837BB00C97487F012402222BC
:10420100E4FBEBC39416503D90016BE0FE25E0F01A
:10421100EBFDC374159DFDE49400FC74892DF582BA
:1042210074013CF583E0700990016BE04401F0807A
:104231000790016BE054FEF090016BE0540FF074B5
:10424100072BFB80BD90016BE0540F6004D25280BC
:0542510002C252A2525E
:014256002245
:103E03001242014003023EA690016BE0FE30E02225
:103E1300E4FA74612AF582E43401F583E0FF7489DE
:103E23002AF582E43401F583EFF00AEAB407E37F6D
:103E33000122EE30E122E4FA74612AF582E43401CE
:103E4300F583E0FF74902AF582E43401F583EFF003
:103E53000AEAB407E37F022290016BE030E222E436
:103E6300FA74612AF582E43401F583E0FF74972A3A
:103E7300F582E43401F583EFF00AEAB407E37F0344
:103E830022E4FA74612AF582E43401F583E0FF74D5
:103E93009E2AF582E43401F583EFF00AEAB407E3DE
:053EA3007F04227F00F6
:013EA80022F7
:03000600DFFE22F8
:0246F100AE0712
:1046F300E4FDEEA805088002C333D8FC3392A6C2BA
:10470300A57F1E120006D2A57F1E1200060DEDB472
:0B47130008E0C2A77F14120006D2A726
:01471E002278
:10487500E49001F6F0FF1246F1E4F09001F4F0C285
:064885003ED23CA3F0222C
:104257009001F6E0FF1246F19001F4E0FF5401FEF1
:104267009001F6E0FD54016E6004D2388030EF54BF
:1042770002FFED54026F6004D23980229001F4E00E
:10428700FF5404FE9001F6E0FD54046E6004D23A38
:10429700800CEF5408FFED54086F6002D23BD23E0A
:0142A70022F4
:10471F00E49001ECF09001E674F0F0A3F0E4A3F064
:10472F00A3F0C222C224C21DC21EC225C21BA3F007
:0B473F00A3F0D221C28BD2AAD28A22A2
:030013000248445C
:10484400C0E0C083C08275CDFF75CC0A9001ECE452
:0A485400F0C2CFD082D083D0E03252
:1044EC009000DF7401F0A37401F0A37424F0F99030
:1044FC0000E57401F0A37401F0A3E9F09000DC7402
:10450C0001F0A37400F0A374E8F0F99000E27401D8
:10451C00F0A37400F0A3E9F0D248D247D246D24AB5
:01452C00226C
:0E2EA7009001BFEBF0A3EAF0A3E9F0A3EDF079
:102EB50012134A540FFFED24FD6F60037F0022902B
:102EC50000E5E0FBA3E0FAA3E0F9C003C002C001FE
:102ED5009000DFE0FBA3E0FAA3E0F9D082D083D035
:102EE500E06B7008E965827003EA658370723048AB
:102EF5006C9001C3F09001C2E0FFA3E0FEC39F50B8
:102F0500579001BFE0FBA3E0FAA3E0F98E82758339
:102F150000121363FF9000DFE0FBA3E0FAA3E0F9E2
:102F2500EF1213909000E0E475F00112141990006F
:102F3500DFE0A3E0FAA3E0C39424FFEA9401FEEFE7
:102F4500643C4E700B9000E074FF75F0C4121419C8
:102F55009001C3E004F0809DC2480230CD7F00227D
:102F65009000E5E0FBA3E0FAA3E0F9C003C002C0CE
:102F7500019000DFE0A3E0FAA3E0F9D3D082D0838B
:102F8500D0E0E99582EA9583500302303A9000DF5C
:102F9500E0FBA3E0A3E09001C2E0FF7E00E92FF98A
:102FA500EE3AFAC003C002C0019000E5E0A3E0FAE2
:102FB500A3E0243CF9E43AFAC3D082D083D0E0E917
:102FC5009582EA9583406BE49001C3F09001C2E0DD
:102FD500FFA3E0FEC39F40030230CD9001BFE0FB9D
:102FE500A3E0FAA3E0F98E82758300121363FF90C4
:102FF50000DFE0FBA3E0FAA3E0F9EF1213909000E5
:10300500E0E475F0011214199000DFE0A3E0FAA3E3
:10301500E0C39424FFEA9401FEEF643C4E700B90EC
:1030250000E074FF75F0C41214199001C3E004F0B8
:10303500809A7F00229000DFE0A3E0FAA3E0AE02D1
:10304500FF9000E5E0A3E0FAA3E0C39FFFEA9EFE40
:103055009001C2E0FDC3EF9D7480F86E984066E470
:10306500A3F09001C2E0FFA3E0FEC39F505A900178
:10307500BFE0FBA3E0FAA3E0F98E8275830012138B
:1030850063FF9000DFE0FBA3E0FAA3E0F9EF121382
:10309500909000E0E475F0011214199000DFE0A3B0
:1030A500E0FAA3E0C39424FFEA9401FEEF643C4EEA
:1030B500700B9000E074FF75F0C41214199001C3F1
:0A30C500E004F0809D7F00227F01EF
:0130CF0022DE
:0B26E8009001A8EBF0A3EAF0A3E9F0DA
:1026F300E49001ACF09000E5E0FBA3E0FAA3E0F97D
:10270300C003C002C0019000DFE0FBA3E0FAA3E036
:10271300F9D082D083D0E06B7008E965827003EA58
:10272300658360030227E6304802FF229000E5E05C
:10273300FBA3E0FAA3E0F912134AFF9001A8E0FB20
:10274300A3E0FAA3E0F9EF1213909000E6E475F02A
:10275300011214199001A8E0FBA3E0FAA3E0F91217
:10276300134A540F9001ACF09001AB7401F0900147
:10277300ACE02403FFE433FE9001ABE0C39FEE64BF
:1027830080F87480984003022A0E9000E5E0FBA3D2
:10279300E0FAA3E0F912134AFF9001A8E0FBA3E0DB
:1027A300FAA3E0F9A3E0F582758300EF1213A29078
:1027B30000E6E475F0011214199000E5E0A3E0FAD5
:1027C300A3E0C39424FFEA9401FEEF643C4E700B34
:1027D3009000E674FF75F0C41214199001ABE00485
:1027E300F0808B9000E5E0FBA3E0FAA3E0F9C003DF
:1027F300C002C0019000DFE0A3E0FAA3E0F9D3D068
:1028030082D083D0E0E99582EA95835003022910B0
:102813009000E5E0A3E0FAA3E0F912134A540F9005
:1028230001ACF0AE02AF019000DFE0FBA3E0FAA33E
:10283300E0F9C39FFFEA9EFE9001ACE02403FDE4B0
:1028430033FCC3EF9DEC6480F8EE648098501090E5
:1028530000E5EBF0A3EAF0A3E9F0D2487F0022E41D
:102863009001ABF09001ACE02403FFE433FE900150
:10287300ABE0C39FEE6480F874809850599000E5F4
:10288300E0FBA3E0FAA3E0F912134AFF9001A8E0EA
:10289300FBA3E0FAA3E0F9A3E0F582758300EF124E
:1028A30013A29000E6E475F0011214199000E5E01C
:1028B300A3E0FAA3E0C39424FFEA9401FEEF643C8F
:1028C3004E700B9000E674FF75F0C412141990015A
:1028D300ABE004F0808E9000E5E0FBA3E0FAA3E018
:1028E300F9C003C002C0019000DFE0FBA3E0FAA33C
:1028F300E0F9D082D083D0E06B7008E96582700381
:10290300EA65836003022A0ED248022A0E9000E58C
:10291300E0FBA3E0FAA3E0F912134A540F9001ACD1
:10292300F0AE02AF019000DFE0FBA3E0FAA3E0F911
:10293300C39FFFEA9ECF243CCF3400FE9001ACE05E
:102943002403FDE433FCC3EF9DEC6480F8EE648064
:102953009850109000E5EBF0A3EAF0A3E9F0D24819
:102963007F0022E49001ABF09001ACE02403FFE48C
:1029730033FE9001ABE0C39FEE6480F874809850FF
:10298300599000E5E0FBA3E0FAA3E0F912134AFF34
:102993009001A8E0FBA3E0FAA3E0F9A3E0F58275B8
:1029A3008300EF1213A29000E6E475F001121419EC
:1029B3009000E5E0A3E0FAA3E0C39424FFEA9401C6
:1029C300FEEF643C4E700B9000E674FF75F0C4128A
:1029D30014199001ABE004F0808E9000E5E0FBA3B6
:1029E300E0FAA3E0F9C003C002C0019000DFE0FBFE
:1029F300A3E0FAA3E0F9D082D083D0E06B7008E9BA
:102A030065827003EA65837002D2489001ACE024CA
:022A130003FFBF
:012A1500229E
:0E2C7B009001C4EBF0A3EAF0A3E9F0A3EDF0A2
:102C8900900002121363540FFFED24FD6F60037F60
:102C990000229000E2E0FBA3E0FAA3E0F9C003C040
:102CA90002C0019000DCE0FBA3E0FAA3E0F9D082C6
:102CB900D083D0E06B7008E965827003EA658370A0
:102CC9007230476C9001C8F09001C7E0FFA3E0FEA5
:102CD900C39F50579001C4E0FBA3E0FAA3E0F98E2B
:102CE90082758300121363FF9000DCE0FBA3E0FA16
:102CF900A3E0F9EF1213909000DDE475F0011214CE
:102D0900199000DCE0A3E0FAA3E0C394E8FFEA9499
:102D190000FEEF643C4E700B9000DD74FF75F0C44B
:102D29001214199001C8E004F0809DC247022EA434
:102D39007F00229000E2E0FBA3E0FAA3E0F9C003E0
:102D4900C002C0019000DCE0A3E0FAA3E0F9D3D00F
:102D590082D083D0E0E99582EA95835003022E114F
:102D69009000DCE0FBA3E0A3E09001C7E0FF7E0058
:102D7900E92FF9EE3AFAC003C002C0019000E2E07F
:102D8900A3E0FAA3E0243CF9E43AFAC3D082D08361
:102D9900D0E0E99582EA9583406BE49001C8F09010
:102DA90001C7E0FFA3E0FEC39F4003022EA49001E8
:102DB900C4E0FBA3E0FAA3E0F98E82758300121345
:102DC90063FF9000DCE0FBA3E0FAA3E0F9EF121344
:102DD900909000DDE475F0011214199000DCE0A375
:102DE900E0FAA3E0C394E8FFEA9400FEEF643C4EE6
:102DF900700B9000DD74FF75F0C41214199001C8AE
:102E0900E004F0809A7F00229000DCE0A3E0FAA3BE
:102E1900E0AE02FF9000E2E0A3E0FAA3E0C39FFF67
:102E2900EA9EFE9001C7E0FDC3EF9D7480F86E989D
:102E39004066E4A3F09001C7E0FFA3E0FEC39F5002
:102E49005A9001C4E0FBA3E0FAA3E0F98E827583EE
:102E590000121363FF9000DCE0FBA3E0FAA3E0F9A2
:102E6900EF1213909000DDE475F00112141990002F
:102E7900DCE0A3E0FAA3E0C394E8FFEA9400FEEFE4
:102E8900643C4E700B9000DD74FF75F0C412141988
:0D2E99009001C8E004F0809D7F00227F01C1
:012EA6002209
:0B232F009001ADEBF0A3EAF0A3E9F091
:10233A00E49001B1F09000E2E0FBA3E0FAA3E0F937
:10234A00C003C002C0019000DCE0FBA3E0FAA3E0F6
:10235A00F9D082D083D0E06B7008E965827003EA15
:10236A006583600302243B304702FF229000E2E0CB
:10237A00A3E0FAA3E0C394E8FFEA9400FEC3EF9453
:10238A003AEE6480948040189000E2E0FBA3E0A358
:10239A00E0F990FFC6121363540F9001B1F0801751
:1023AA009000E2E0FBA3E0FAA3E0F9900002121326
:1023BA0063540F9001B1F0E49001B0F09001B1E0E4
:1023CA002403FFE433FE9001B0E0C39FEE6480F87B
:1023DA0074809840030226E09000E2E0FBA3E0FA52
:1023EA00A3E0F912134AFF9001ADE0FBA3E0FAA3C0
:1023FA00E0F9A3E0F582758300EF1213A29000E3DF
:10240A00E475F0011214199000E2E0A3E0FAA3E0E7
:10241A00C394E8FFEA9400FEEF643C4E700B900010
:10242A00E374FF75F0C41214199001B0E004F0804F
:10243A008B9000E2E0FBA3E0FAA3E0F9C003C0023C
:10244A00C0019000DCE0A3E0FAA3E0F9D3D082D087
:10245A0083D0E0E99582EA958350030225A3900090
:10246A00E2E0A3E0FAA3E094E8FFEA9400FEC3EFF7
:10247A00943AEE6480948040179000E2E0A3E0A3CF
:10248A00E0F990FFC6121363540F9001B1F0801760
:10249A009000E2E0FBA3E0FAA3E0F9900002121335
:1024AA0063540F9001B1F09000E2E0A3E0FAA3E0D8
:1024BA00AE02FF9000DCE0FBA3E0FAA3E0F9C39FC1
:1024CA00FFEA9EFE9001B1E02403FDE433FCC3EF72
:1024DA009DEC6480F8EE64809850109000E2EBF076
:1024EA00A3EAF0A3E9F0D2477F0022E49001B0F01A
:1024FA009001B1E02403FFE433FE9001B0E0C39FF2
:10250A00EE6480F874809850599000E2E0FBA3E0F2
:10251A00FAA3E0F912134AFF9001ADE0FBA3E0FA37
:10252A00A3E0F9A3E0F582758300EF1213A29000ED
:10253A00E3E475F0011214199000E2E0A3E0FAA3B3
:10254A00E0C394E8FFEA9400FEEF643C4E700B90FF
:10255A0000E374FF75F0C41214199001B0E004F09E
:10256A00808E9000E2E0FBA3E0FAA3E0F9C003C08A
:10257A0002C0019000DCE0FBA3E0FAA3E0F9D082FC
:10258A00D083D0E06B7008E965827003EA658360E6
:10259A00030226E0D2470226E09000E2E0A3E0FA36
:1025AA00A3E0C394E8FFEA9400FEC3EF943AEE6412
:1025BA0080948040189000E2E0FBA3E0A3E0F99049
:1025CA00FFC6121363540F9001B1F080179000E216
:1025DA00E0FBA3E0FAA3E0F9900002121363540FA0
:1025EA009001B1F09000E2E0A3E0FAA3E0AE02FFAE
:1025FA009000DCE0FBA3E0FAA3E0F9C39FFFEA9EA8
:10260A00CF243CCF3400FE9001B1E02403FDE43333
:10261A00FCC3EF9DEC6480F8EE6480985010900043
:10262A00E2EBF0A3EAF0A3E9F0D2477F0022E490BC
:10263A0001B0F09001B1E02403FFE433FE9001B051
:10264A00E0C39FEE6480F874809850599000E2E0ED
:10265A00FBA3E0FAA3E0F912134AFF9001ADE0FBF5
:10266A00A3E0FAA3E0F9A3E0F582758300EF121361
:10267A00A29000E3E475F0011214199000E2E0A3BD
:10268A00E0FAA3E0C394E8FFEA9400FEEF643C4E4C
:10269A00700B9000E374FF75F0C41214199001B026
:1026AA00E004F0808E9000E2E0FBA3E0FAA3E0F9F8
:1026BA00C003C002C0019000DCE0FBA3E0FAA3E083
:1026CA00F9D082D083D0E06B7008E965827003EAA2
:0D26DA0065837002D2479001B1E02403FF38
:0126E70022D0
:1042F80020484C7B007A0079451226E88F33E53355
:10430800603D7F027E8012480EEF6547702DE545BF
:1043180030E404D2138002D21A900175E545F07F8B
:104328000374452FF8E6FE74732FF582E43401F523
:0F43380083EEF00FEFB40AE9D24922D211C24648
:014347002253
:0648E400204702D2492228
:10474A00C296D297C250C251C24FE49001E0F0A380
:10475A00F09001DC121449000000009001E21214EA
:06476A00490000000022DE
:103C8200304F64D29600C29700C2960000D29600CE
:103C9200D29700C29600C29700D2960000C2960048
:103CA20000D2960000C2960000D2960000C2960092
:103CB20000D2960000C2960000D2960000C2960082
:103CC200D29700D2960000C29600C29700D2960008
:103CD20000C29600D29700D2960000C2960000D28F
:103CE200960000C2968062D29600C29700C29600E9
:103CF20000D29600D29700C29600C29700D29600D8
:103D020000C2960000D2960000C2960000D2960031
:103D120000C2960000D2960000C2960000D2960021
:103D220000C29600C29700D2960000C29600D297B7
:103D320000D2960000C29600D29700D2960000C22E
:0E3D4200960000D2960000C296C250D25122C6
:1030D000E49001A8F0A3F0204F030231EED2960055
:1030E00000C2960000D2960000C2960000D2960060
:1030F00000C2960000D2960000C2960000A3F0D253
:10310000969001A9E025E0FF9001A8E033FEF0A32E
:10311000EFF0A297E433FDEEED4FFF9001A8EEF043
:10312000A3EFF0C2960000A3E004F0E0B404D0C224
:103130009700D2960000C2960000E49001AAF0D257
:10314000969001A9E025E0FF9001A8E033FEF0A3EE
:10315000EFF0A297E433FDEEED4FFF9001A8EEF003
:10316000A3EFF0C2960000A3E004F0E0B408D0D2D0
:103170009700D2960000C29600009001A8E0FCA340
:10318000E0FDE412119A7BF67A2479D67835120F95
:1031900065C004C005C006C0079001A8E0FCA3E01C
:1031A000FDE412119AD003D002D001D000120F65B5
:1031B000C004C005C006C0079001A8E0FCA3E0FD64
:1031C000E412119A7BBD7A527916783D120F65D0C0
:1031D00003D002D001D000120E707BC57AFE7902B6
:1031E00078C0120E749001E212143D0232A6D296FB
:1031F0000000C2960000D2960000C2960000E49043
:1032000001AAF0D2969001A9E025E0FF9001A8E084
:1032100033FEF0A3EFF0A297E433FDEEED4FFF9005
:1032200001A8EEF0A3EFF0C2960000A3E004F0E0E6
:10323000B406D0C29700D2960000C2960000E49077
:1032400001AAF0D2969001A9E025E0FF9001A8E044
:1032500033FEF0A3EFF0A297E433FDEEED4FFF90C5
:1032600001A8EEF0A3EFF0C2960000A3E004F0E0A6
:10327000B408D0D29700D2960000C2960000900108
:10328000A8E0FCA3E0FDE412119A7B0A7AD7792327
:10329000783C120F657B667A66792078C2120E74CC
:0A32A0009001DC12143DC251B24F40
:0132AA002201
:1048B200D2A1D2A0000000C2A1000000C2A000004C
:0248C2000022D2
:0D001600C2A1D2A0000000D2A10000002273
:1048C400A25292A1D2A00000000000C2A0000000E9
:0148D40022C1
:0F48D500D2A00000000000A2A1C2A0000000229B
:1047F100E4FEEF25E0FF92A1D2A00000000000C27C
:0C480100A00000000EEEB408E91248D53B
:01480D002288
:10479500E4FFD2A1FEEF25E0FFD2A000000000A2B9
:0F47A500A1E4334FFFC2A00000000EEEB408E6FF
:0147B40022E2
:10488B00C240C244C241E49001EDF0A3F0D243C256
:04489B0042C24522AE
:10477000C2401248B27F461247F17F011247F11240
:1047800000161248B27F461247F17F201247F112FD
:054790000016D24122D9
:1041A600E4FDFCC2441248B27F471247F11247951C
:1041B600AB07C2521248C4EBFD124795AB07D25269
:1041C6001248C4AF05EFFEAD03E42DFFEC3E9001AF
:1041D600EFF0A3EFF01200169001EFE0FCA3E0FD74
:1041E600E412119A7B9A7A997999783F12106E1295
:0A41F60011D39001EFEEF0A3EFF0FB
:01420000229B
:100E6D0002123FE86480F8E933E83360110460F062
:100E7D00ED33EC337009E8FCE9FDEAFEEBFF2204EB
:100E8D0060DED3EB9FEA9EE99DE8C2E78CF0C2F7E6
:100E9D0095F0400CE8CCF8E9CDF9EACEFAEBCFFBB2
:100EAD0012120A85D0F05804700320D5B3E80470EF
:100EBD00075002B2D502124992D5EC0460F7E4CC8A
:100ECD00C0E0C398F8603B94186008400DD0E0FB7B
:100EDD00021221E4FBFAC9FC8028E830E406E4C9DB
:100EED00FBE4CAFCE830E305E4C9CACBFCE85407CF
:100EFD006010F8C3E913F9EA13FAEB13FBEC13FCDA
:100F0D00D8F130F52FC3E49CFCEF9BFFEE9AFEED7C
:100F1D0099FDD0E0FBEF4E4D4C701222DB03021217
:100F2D0046EC2CFCEF33FFEE33FEED33FDED30E7F9
:100F3D00EB021221EF2BFFEE3AFEED39FDD0E0FB77
:100F4D0050130BBB0003021249ED13FDEE13FEEF20
:080F5D0013FFEC13FC0212214A
:100F6500EC4D6011E8497017ED33EC3304600DE486
:100F7500FCFFFEFD22E933E8330470F802123F124C
:100F8500120A58046009E4CC24815006285009024D
:100F95001249284003021246C0E0EB4A7044B9806A
:100FA50006D0E0FB021235EF4E701CBD8008EBFF4A
:100FB500EAFEE9FD80EBE98DF0A4FEE5F002104EB6
:100FC500E9CDF9EAFEEBFFEF89F0A4FCE5F0CE8967
:100FD500F0A42EFFE435F0CD89F0A42DFEE435F024
:100FE5008067EF4E7005BD80D780C3EF8BF0A4AC52
:100FF500F0EE8BF0A42CFCE435F0F8EF8AF0A42C8D
:10100500E5F038FCE433CB8DF0A42CFCE5F03BF89F
:10101500EE8AF0A42CFCE5F038F8E433CF89F0A48F
:101025002CFCE5F038CF3400CE89F0A42FFFE5F095
:101035003EFEE433C98DF0A42EFEE5F039CD8AF0ED
:10104500A42FFFE5F03EFEE43DFD33D0E0FB500765
:101055000BBB000F021249EC2CFCEF33FFEE33FE05
:06106500ED33FD02122133
:10106B00021249EC5D046005E85904700302123F5B
:10107B0012120A580460F6EC4860F2EC7004FDFEA4
:10108B00FF22C860DB2481C85009C3986002500658
:10109B000212469850CAF582E9294B4A7005AB8279
:1010AB0002123575F0007C1A7880C3EF9BEE9AED37
:1010BB0099400DC3EF9BFFEE9AFEED99FDE842F0D0
:1010CB00DC23ACF0D0E0FFD0E0FED0E0FDAB822023
:1010DB00E7101BEB60BAEC2CFCEF33FFEE33FEEDAD
:1010EB0033FD021221E803F830E705C0F075F0007C
:1010FB00EF2FFFEE33FEED33FD40B830E7C280AA91
:10110B0074F8CC6480CCC86480C8F58204604FC38B
:10111B00EB9FF5F0EA9E42F0E99D42F0E89C45F02A
:10112B00603C501DE5825FFFE582D313CB5BCBF4B4
:10113B002B5582FB50280ABA002409B900200880DD
:10114B001DE5825BFBE582D313CF5FCFF4C3132F77
:10115B005582FF50090EBE00050DBD00010CC3EBFF
:10116B009FF5F0EA9E42F0E99D42F0E89C45F06065
:09117B0007CC4820E701B3EC2287
:10118400ED33EC33600A047003BD8004ECB2E7FC79
:011194002238
:1011950075F020800E75F010800575F0087D007ED5
:1011A500007F003392D530D50312142FEC33401055
:1011B500EF33FFEE33FEED33FDEC33FCD5F0ED22DE
:0E11C500E5F0247EA2D513CC92E7CDCEFF221A
:1011D300EDD2E7CD33EC3392D524814006E4FFFE14
:1011E300FDFC22FCE4CFCECDCC24E0501174FF8073
:1011F300EDC3CC13CCCD13CDCE13CECF13CF047010
:07120300F030D5DE02142FCC
:10120A00E9D2E7C933E833F892D5EDD2E7CD33EC2A
:07121A0033FC5002B2D522A3
:10122100EC30E7100FBF000C0EBE00080DBD00042E
:101231000BEB6014A2D5EB13FCED92E7FD2274FFDA
:10124100FCFDFEFF22E480F8A2D574FF13FC7D8033
:03125100E480EF47
:103EB5000232ABE493A3F8E493A34003F68001F246
:103EC50008DFF48029E493A3F85407240CC8C3330E
:103ED500C4540F4420C8834004F456800146F6DFDD
:103EE500E4800B010204081020408090461FE47E08
:103EF500019360BCA3FF543F30E509541FFEE493D2
:103F0500A360010ECF54C025E060A840B8E493A398
:103F1500FAE493A3F8E493A3C8C582C8CAC583CAC3
:103F2500F0A3C8C582C8CAC583CADFE9DEE780BE7B
:014655000064
:10125400E709F608DFFA8046E709F208DFFA803E7C
:1012640088828C83E709F0A3DFFA8032E309F60869
:10127400DFFA8078E309F208DFFA807088828C83D1
:10128400E309F0A3DFFA806489828A83E0A3F60885
:10129400DFFA805889828A83E0A3F208DFFA804C5F
:1012A40080D280FA80C680D4806980F28033801036
:1012B40080A680EA809A80A880DA80E280CA80339F
:1012C40089828A83ECFAE493A3C8C582C8CCC58317
:1012D400CCF0A3C8C582C8CCC583CCDFE9DEE780E7
:1012E4000D89828A83E493A3F608DFF9ECFAA9F066
:1012F400EDFB2289828A83ECFAE0A3C8C582C8CCBC
:10130400C583CCF0A3C8C582C8CCC583CCDFEADED4
:10131400E880DB89828A83E493A3F208DFF980CC36
:1013240088F0EF60010E4E60C388F0ED2402B4042F
:101334000050B9F582EB2402B4040050AF232345D6
:0613440082239012A47345
:10134A00BB010689828A83E0225002E722BBFE02A1
:09135A00E32289828A83E49322D4
:10136300BB010CE58229F582E5833AF583E022503F
:1013730006E92582F8E622BBFE06E92582F8E22289
:0D138300E58229F582E5833AF583E49322A3
:10139000BB010689828A83F0225002F722BBFE013C
:0213A000F32236
:1013A200F8BB010DE58229F582E5833AF583E8F081
:1013B200225006E92582C8F622BBFE05E92582C82D
:0213C200F22215
:1013C400BC000BBE0029EF8DF084FFADF022E4CC0D
:1013D400F875F008EF2FFFEE33FEEC33FCEE9DECD6
:1013E400984005FCEE9DFE0FD5F0E9E4CEFD22ED1C
:1013F400F8F5F0EE8420D21CFEADF075F008EF2F66
:10140400FFED33FD4007985006D5F0F222C398FD56
:051414000FD5F0EA22F3
:10141900C5F0F8A3E028F0C5F0F8E582158270025E
:061429001583E038F022FB
:0E142F00C3E49FFFE49EFEE49DFDE49CFC22CE
:0C143D00ECF0A3EDF0A3EEF0A3EFF02222
:10144900A8828583F0D083D08212146012146012AE
:101459001460121460E473E493A3C583C5F0C583D3
:10146900C8C582C8F0A3C583C5F0C583C8C582C8ED
:011479002250
:10147A00D083D082F8E4937012740193700DA3A301
:10148A0093F8740193F5828883E473740293686015
:06149A00EFA3A3A380DF15
:00000001FF
